:020000040800F2
:100000000010002061010008D9010008D901000892
:10001000D9010008D9010008D9010008D901000858
:10002000D9010008D9010008D9010008D901000848
:10003000D9010008D9010008D9010008D901000838
:10004000D9010008D9010008D9010008D901000828
:10005000D9010008D9010008D9010008D901000818
:10006000D9010008D9010008D9010008D901000808
:10007000D9010008D9010008D9010008D9010008F8
:10008000D9010008D9010008D9010008D9010008E8
:10009000D9010008D9010008D9010008D9010008D8
:1000A000D9010008D9010008D9010008D9010008C8
:1000B00065040008D9010008D9010008D901000829
:1000C00080B500AF214B214A126821490A401A60CD
:1000D000C0461E4B1A6880239B041340F9D11D4B68
:1000E0001C4A126801210A431A601A4B194A126805
:1000F00006218A431A60174B164A126810210A43D8
:100100001A60154B144A126814490A401A60124BBF
:10011000114A1268A02189030A431A600E4B0E4A45
:1001200012688021C9010A431A60084B074A126805
:10013000802149040A431A60074B074A12680221CA
:100140000A431A60C046BD4680BDC046001002404A
:10015000FFFFFFFE0020024004100240FFFFC3FF2C
:1001600080B584B000AFFFF7ABFF164BFB60164BBA
:10017000BB60164A144BD31A7B6007E0BB685A1C5D
:10018000BA60FA68511CF96012781A707B685A1EBE
:100190007A60002BF2D10E4BBB600E4A0C4BD31A87
:1001A0007B6004E0BB685A1CBA6000221A707B684E
:1001B0005A1E7A60002BF5D100F0B4FCC046BD4653
:1001C00004B080BD740D0008000000200400002071
:1001D00004000020B400002080B500AFFEE7C04658
:1001E00090B585B000AF78603960184B1B68002B64
:1001F00002D101235B4224E00023FB600AE0FB689C
:100200005A1CFA603A68D418114B180000F0DCF957
:10021000030023707B68013B1A00FB689A4205D9F2
:100220000B4B180000F0FAF9031EE8D1FB68002B15
:1002300006D03A68FB68D31800221A70FB6800E009
:1002400000231800BD4605B090BDC046AC0000209C
:100250001400002090B585B000AF78603960204B65
:100260001B68002B02D101235B4234E01D4B1800B8
:1002700000F0D4F90300BB60BB684022D21A7B684F
:100280009A4202D202235B4225E00023FB600BE08E
:100290003A68FB68D3181A78124B1100180000F066
:1002A00063F9FB680133FB607B68FA689A42EFD31D
:1002B0000D4B1B68082213400CD10B4B0A4A1268E5
:1002C00008210A431A60094C064B180000F07CF91B
:1002D0000300236000231800BD4605B090BDC04652
:1002E000AC00002060000020004400402844004092
:1002F00080B584B000AF786072B6474B00229A6434
:10030000454B9A6C444B5A64434B5A6C424B1A64AB
:10031000424B00229A64414B9A6C404B5A643F4BCB
:100320005A6C3E4B1A643E4B01221A603D4B002230
:100330001A603D4B3C4A1268802189020A431A60C8
:100340003A4B3A4A1268802189020A431A60902384
:10035000DB059022D205126835490A431A609023C2
:10036000DB059022D205126810218A431A6090237F
:10037000DB059022D20512682E490A401A602E4BE6
:100380002D4A12682D490A401A602B4B2A4A1268DE
:10039000802149000A431A60294B294A1268D20079
:1003A000D2081A60264B264A1268802149050A4362
:1003B0001A60244BFB607968F86800F0E3FB0300E7
:1003C000FB60214B204A126820490A401A60204BEA
:1003D00000221A601F4B00221A601F4B00221A6075
:1003E0001E4BFA681A601A4B194A126864210A43B4
:1003F0001A60174B164A126801210A431A60184BFB
:10040000174A1268802149050A431A6062B6C0463D
:10041000BD4604B080BDC04614000020600000202E
:10042000AC00002010000020141002401C100240FC
:1004300020000080FFFFFFBF20000048FFF1FFFF0A
:1004400024000048006CDC0210100240FFFFFDFF9A
:100450000044004004440040084400400C44004074
:1004600000E100E080B500AF084B1B68802213401C
:1004700001D000F025F8054B1B682022134001D065
:1004800000F006F8C046BD4680BDC0461C44004092
:1004900080B500AF074B1B68DAB2074B110018009C
:1004A00000F062F8031E02D0044B01221A60C0461D
:1004B000BD4680BD244400401400002010000020F0
:1004C000B0B500AF164B180000F0A8F8031E07D017
:1004D000144C134B180000F077F8030023601BE066
:1004E000114B114A126808218A431A600F4B1B688E
:1004F0004022134005D00E4B0D4A126840210A439A
:100500001A600A4B1B688022134005D0094B094A28
:10051000126810210A431A60C046BD46B0BDC046ED
:100520006000002028440040004400401C4400407B
:10053000204400401844004080B500AF084B18002C
:1005400000F06CF8031E04D1064B1B680822134010
:1005500001D0012300E000231800BD4680BDC04645
:10056000600000200044004080B582B000AF786099
:100570000A00FB1C1A707B681A6C7B685B6C9A42E1
:1005800005D17B689B6C002B01D0012317E072B66C
:100590007B681B6C591C7A6811647A68F91C0978AD
:1005A000D1547B689B6C5A1C7B689A647B681B6C7B
:1005B000402B02D17B6800221A6462B60023180027
:1005C000BD4602B080BDC04680B584B000AF786043
:1005D0007B689B6C002B01D100231AE072B67B680C
:1005E0005B6C591C7A6851640F22BA187968CB5C2D
:1005F00013707B685B6C402B02D17B6800225A64CD
:100600007B689B6C5A1E7B689A6462B60F23FB184A
:100610001B781800BD4604B080BDC04680B582B0CE
:1006200000AF78607B689B6C1800BD4602B080BD4F
:1006300080B582B000AF78600B4B1B68002B09D1EE
:1006400001235B420BE07B685A1C7A601900012091
:10065000FFF700FE7B681B78002BF4D10023180005
:10066000BD4602B080BDC046AC00002090B585B04C
:1006700000AF786039601F4B1B68002B02D101234B
:100680005B4232E00023FB600B23FB1800221A7050
:1006900018E0C046184B1800FFF7C0FF031EF9D042
:1006A0000B23FC18144B1800FFF78EFF0300237078
:1006B000FB685A1CFA601A007B689B180B22BA1858
:1006C00012781A703B685A1EFB689A4204DD0B23AD
:1006D000FB181B780D2BDCD1FB68002B04DDFB68BD
:1006E0007A68D31800221A70FB681800BD4605B05E
:1006F00090BDC046AC0000201400002080B582B040
:1007000000AF78607B68002B07DB7B68092B04DC7B
:100710007B68DBB23033DBB203E07B68DBB23733BC
:10072000DBB21800BD4602B080BDC04680B586B0C1
:1007300000AF786008237B610823FA187B69D3181F
:1007400000221A707B69013B7B6113E07B680F22FA
:1007500013401800FFF7D2FF030019000823FA180E
:100760007B69D3180A1C1A707B681B097B607B6944
:10077000013B7B617B69002BE8DA0823FB1818003A
:10078000FFF756FFC046BD4606B080BD80B500AF3E
:10079000294B294A1268802149010A431A60274BD4
:1007A000264A1268802189020A431A609023DB05D9
:1007B0009022D2051268802109020A431A60902310
:1007C000DB059022D20512681D490A401A601D4BB4
:1007D0001C4A1268120112091A601B4B1B490022A5
:1007E0000A601A60184B184A126801210A431A60FD
:1007F000154B154A126804210A431A60124B124A1B
:10080000126818210A431A600F4B0F4A1268C02160
:1008100089000A431A600D4B0C4A1268E021C90096
:100820000A431A60084B084A126840210A431A60BA
:10083000C046BD4680BDC04618100240141002409C
:10084000FFBFFFFF2000004800300140043001409E
:1008500080B582B000AF7860396010E00C4A7B68E8
:100860001B7813707B6801337B60C046094B1A68A4
:10087000C0235B011A40C0235B019A42F6D03B685B
:100880005A1E3A60002BE9D1C046BD4602B080BD79
:100890000C3001400830014080B582B000AF786074
:1008A000C0467B685A1E7A60002BFAD1C046BD460E
:1008B00002B080BD80B500AF0A4B0A4A12688021A1
:1008C000C9020A431A60084B074A126840210A43CA
:1008D0001A60054B044A126880218A431A60C04698
:1008E000BD4680BD141002400004004880B588B0A9
:1008F00000AF78600023FB610023BB610023FB6134
:1009000016E0FB69DB00FB617A6880231B0413405F
:1009100004D0FB6906221343FB6103E0FB69042258
:100920001343FB617B685B007B60BB690133BB6188
:10093000BB69072BE5DDFB691B0CDAB20C23FB1846
:100940001A70FB691B0ADAB20C23FB185A70FB6998
:10095000DAB20C23FB189A700023BB610023FB6101
:1009600016E0FB69DB00FB617A6880231B041340FF
:1009700004D0FB6906221343FB6103E0FB690422F8
:100980001343FB617B685B007B60BB690133BB6128
:10099000BB69072BE5DDFB691B0CDAB20C23FB18E6
:1009A000DA70FB691B0ADAB20C23FB181A71FB69B7
:1009B000DAB20C23FB185A710023BB610023FB61E0
:1009C00016E0FB69DB00FB617A6880231B0413409F
:1009D00004D0FB6906221343FB6103E0FB69042298
:1009E0001343FB617B685B007B60BB690133BB61C8
:1009F000BB69072BE5DDFB691B0CDAB20C23FB1886
:100A00009A71FB691B0ADAB20C23FB18DA71FB69D5
:100A1000DAB20C23FB181A720C23FB1809211800F8
:100A2000FFF716FFC046BD4608B080BD80B500AFD9
:100A3000374B1B68052B5DD89A00364BD3181B68C3
:100A40009F46354B1B685A1C334B1A60324B1B6850
:100A5000FF2B44D12E4B01221A6040E02F4B1B6824
:100A60005A1E2E4B1A602D4B1B68002B39D1284B78
:100A700002221A6035E02A4B1B685A1C284B1A6068
:100A8000274B1B68FF2B2ED1214B03221A602AE033
:100A9000214B1B685A1E204B1A601F4B1B68002BF2
:100AA00023D11B4B04221A601FE01C4B1B685A1CED
:100AB0001A4B1A60194B1B68FF2B18D1144B0522D7
:100AC0001A6014E0164B1B685A1E154B1A60144B23
:100AD0001B68002B0DD10E4B00221A6009E0C046A6
:100AE00008E0C04606E0C04604E0C04602E0C0465A
:100AF00000E0C046084B1B681A04084B1B681B0229
:100B0000D218074B1B68D3181800BD4680BDC046DD
:100B1000040000205C0D00080800002000000020F8
:100B20000C00002080B582B000AF00237B609623CC
:100B30009B011800FFF7DCFBFFF7BCFEFFF726FE6A
:100B40000D4B0D4A126808210A431A60FFF76EFF29
:100B500003001800FFF7CAFE084B1800FFF79CFEC1
:100B6000054B054A126808218A431A60044B180095
:100B7000FFF792FEE4E7C046140400481027000087
:100B8000A086010003460B437FD4002243088B421A
:100B900074D303098B425FD3030A8B4244D3030B04
:100BA0008B4228D3030C8B420DD3FF22090212BAC9
:100BB000030C8B4202D31212090265D0030B8B4245
:100BC00019D300E0090AC30B8B4201D3CB03C01A2F
:100BD0005241830B8B4201D38B03C01A5241430B0A
:100BE0008B4201D34B03C01A5241030B8B4201D3FA
:100BF0000B03C01A5241C30A8B4201D3CB02C01A65
:100C00005241830A8B4201D38B02C01A5241430ADC
:100C10008B4201D34B02C01A5241030A8B4201D3CB
:100C20000B02C01A5241CDD2C3098B4201D3CB0172
:100C3000C01A524183098B4201D38B01C01A524121
:100C400043098B4201D34B01C01A524103098B4225
:100C500001D30B01C01A5241C3088B4201D3CB0010
:100C6000C01A524183088B4201D38B00C01A5241F3
:100C700043088B4201D34B00C01A5241411A00D2A3
:100C800001465241104670475DE0CA0F00D049420C
:100C9000031000D34042534000229C4603098B427C
:100CA0002DD3030A8B4212D3FC22890112BA030A04
:100CB0008B420CD3890192118B4208D38901921186
:100CC0008B4204D389013AD0921100E08909C3090B
:100CD0008B4201D3CB01C01A524183098B4201D30D
:100CE0008B01C01A524143098B4201D34B01C01AF8
:100CF000524103098B4201D30B01C01A5241C30870
:100D00008B4201D3CB00C01A524183088B4201D3DE
:100D10008B00C01A5241D9D243088B4201D34B00F9
:100D2000C01A5241411A00D20146634652415B103B
:100D3000104601D34042002B00D54942704763461C
:100D40005B1000D3404201B5002000F005F802BD61
:0C0D50000029F8D016E770477047C04635
:100D5C00420A00085C0A0008760A0008900A00089B
:080D6C00AA0A0008C40A0008ED
:040D7400FF0000007C
:0400000508000000EF
:00000001FF
